:04000005D80000001F
:02000004D80022
:1000000018F09FE518F09FE518F09FE518F09FE5C0
:1000100018F09FE50000A0E114F09FE514F09FE5C3
:10002000540000D83C0000D8400000D8440000D85C
:10003000480000D84C0000D8500000D8FEFFFFEA6E
:10004000FEFFFFEAFEFFFFEAFEFFFFEAFEFFFFEA18
:10005000FEFFFFEA0102A0E358129FE558229FE548
:1000600058329FE50246E0E3002080E5043080E559
:10007000084080E548229FE548329FE58040E0E364
:10008000002081E5043081E5084081E538029FE5E4
:10009000142090E50218A0E3010012E10800000A14
:1000A0003F1C12E2010B51E3050000DA012C42E291
:1000B000142080E514629FE5016056E2FDFFFF1AFF
:1000C000F2FFFFEA0230A0E1012B42E20100005AF8
:1000D0003F2CE0E3022003E0142080E5EC619FE583
:1000E000016056E2FDFFFF1AE4119FE5041080E570
:1000F0000010A0E3081080E5001090E50127A0E3C0
:10010000021081E1001080E5081090E5020911E37A
:10011000FCFFFF0ABC119FE50C1080E50010A0E376
:10012000101080E5001090E50227A0E3021081E1A5
:10013000001080E5101090E5020911E3FCFFFF0AB2
:10014000FA6FA0E3016056E2FDFFFF1A0221A0E36F
:10015000001090E5021081E1001080E578119FE524
:10016000001080E574119FE5181080E570119FE57F
:100170001C1080E56C119FE5201080E568119FE55B
:10018000241080E564019FE564119FE564219FE5EB
:100190000030A0E30840A0E3104081E558419FE50E
:1001A00054519FE550619FE550719FE550819FE557
:1001B000284080E5305080E5346080E5387080E587
:1001C0003C8080E50440A0E3104081E534419FE598
:1001D000044081E530419FE5004081E5003082E543
:1001E00028419FE5004081E5003082E5003082E54E
:1001F000003082E5003082E510419FE5004081E556
:10020000003082E5003082E5003082E5003082E592
:10021000FC409FE5004081E5F8409FE5DA50A0E30F
:100220000050C4E5A144A0E3FF50A0E30050C4E5A2
:10023000E4409FE5004081E50040A0E3204081E5E7
:100240000040A0E3244081E50040A0E3284081E590
:100250000040A0E32C4081E50040A0E3304081E570
:10026000100F11EE010A80E3100F01EEAC009FE5C4
:10027000DBF021E300D0A0E1000040E2D7F021E371
:1002800000D0A0E1000040E2D1F021E300D0A0E1E5
:10029000000040E2D2F021E300D0A0E1000040E203
:1002A000D3F021E300D0A0E1080040E21FF021E3F9
:1002B0006C009FE510FF2FE1000002100403040012
:1002C000FBFCFBFF0000DC3FFFFDFF3F0070021066
:1002D000DC050000231C330003240C040701F33366
:1002E0004315041203030303C001010648684BFFD2
:1002F00000780210001000D8000F00A05555555589
:1003000005500000555555153AC76A000000209267
:10031000000020A2000020B2330000A080602282F2
:100320008858FFFF280300D800D09FE5010000FA9D
:100330008058FFFF00470000054C064D03E02000F9
:100340000FC898471034AC42F9D30348FFF7F2FFC7
:10035000900300D8C00300D8614EFFFF000052E3B5
:10036000043090140420421204308114FAFFFF1A62
:100370001EFF2FE11EFF2FE10000A0E3000052E36B
:100380000420421204008114FBFFFF1A1EFF2FE11C
:10039000C00300D8004CFFFF300300005C0300D80E
:1003A000F00600D80054FFFF1C0000005C0300D8DA
:1003B0000C0700D81C54FFFF6C040000780300D821
:1003C00070B506001348114C8078114D002819D1E2
:1003D00000F088F8300000F0F3F8082000F08CF806
:1003E000FF200130FF2209322188AB1CA41C298088
:1003F0001D00401C9042F7DB05484079FF2803D0E0
:10040000052070BD012070BD002070BD000800D81F
:100410003C54FFFF1854FFFF70B50F4C012904D165
:10042000881E60600020A06014E022696168D040EE
:10043000050088420ED00AE0E168A0684018A0607C
:10044000FFF7BEFF002802D16068401C6060606852
:10045000A842F1DB002070BD0054FFFF30B5184BFF
:10046000187059709A701748C18A174A914220D063
:10047000164CA1060C60E4434C60154C8C60154C86
:1004800015490C60154C4C608024E4438C60144981
:100490004C693025AC434C6100218182C282042129
:1004A000418202214181482141830821418309037E
:1004B00081831878082801D0022030BD002030BD8B
:1004C0001854FFFF000E00D8FFFF000004030400D3
:1004D000FFFFDFFF0000DC3F00000210FFFDFF3FD9
:1004E000007802100349088101208883888B00046A
:1004F000FCD57047000E00D802498883888B000421
:10050000FCD57047000E00D8F7B5070025481B241E
:100510008078234EE406150000283FD1FFF7E2FF64
:10052000380000F04DF80820FFF7E6FF1E498889E3
:100530000A22104201D00420FEBD88890522104203
:100540001DD0888940070BD5C889CB890009400098
:10055000001902881B0701271B0F9F407A40028069
:100560008889C0070BD0088A0B8A000940008019CF
:1005700002881B0701211B0F99404A400280019904
:100580000020C91C4A0805E02188AB1CA41C298056
:100590001D00401C8242F7D80020FEBD0120FEBD98
:1005A000000800D81854FFFF000E00D80349C88087
:1005B00002208883888B0004FCD57047000E00D889
:1005C0000200000610B5000EFFF7F0FF0548807826
:1005D000012803D11005000FFFF7E8FF100000F01D
:1005E00003F810BD1854FFFF70B50C494D78440A4C
:1005F0008878012801D1E4086D1E2006000EFFF75F
:10060000D5FF240A2006000EFFF7D0FF032D03D9E3
:100610002004000EFFF7CAFF70BD00001854FFFF52
:10062000F8B5294E08203070042070700020B0709A
:100630002648002200680421F06024481300083096
:100640000068306121481030006870610820FFF7B1
:1006500005FF01210020FFF7DFFE00210800FFF762
:10066000DBFE1B4AB0682021FFF74EFF18484469A3
:10067000601C00D1FEE71748844200D30400002527
:1006800005277F0711E000212800FFF7C5FE7169EB
:10069000F0688C420ED9B268401E28408018EA19D2
:1006A000FFF732FF70692D18241A002CEBD1B847E0
:1006B0000020F8BDB168401E28404018EA1921000A
:1006C000FFF722FFF3E700000054FFFF184FFFFF82
:1006D0001C54FFFF00C0FF070040000000000200A4
:1006E0000E000000110000000002000000080000E1
:1006F00000000000FFFFFFFF0000000000000000FE
:0C070000000000000000000000000000ED
:00000001FF
